:100000000C942A000C94ED010C9416020C943F02FF
:100010000C943C000C943C000C943C000C943C0070
:100020000C943C000C943C000C943C000C943C0060
:100030000C943C000C943C000C943C000C943C0050
:100040000C943C000C943C000C943C000C943C0040
:100050000C943C0011241FBECFE5D8E0DEBFCDBF1D
:1000600010E0A0E6B0E001C01D92A736B107E1F7AD
:100070000E9473020C9492020C940000843008F0E9
:1000800075C0683008F072C0423008F06FC081302F
:1000900009F1813030F08230B1F1833009F064C071
:1000A0004BC0413059F42AB381E090E002C0880F80
:1000B000991F6A95E2F7282B2ABB56C02AB381E024
:1000C00090E002C0880F991F6A95E2F7809582231D
:1000D0008ABB4AC0413059F427B381E090E002C0A6
:1000E000880F991F6A95E2F7282B27BB3DC027B3DD
:1000F00081E090E002C0880F991F6A95E2F7809531
:10010000822387BB31C0413059F424B381E090E0B1
:1001100002C0880F991F6A95E2F7282B24BB24C0E0
:1001200024B381E090E002C0880F991F6A95E2F73E
:100130008095822384BB18C0413059F421B381E0FB
:1001400090E002C0880F991F6A95E2F7282B21BB27
:100150000BC021B381E090E002C0880F991F6A951F
:10016000E2F78095822381BB80E0089581E00895C5
:10017000843008F075C0683008F072C0423008F072
:100180006FC0813009F1813030F08230B1F18330BD
:1001900009F064C04BC0413059F42BB381E090E0CA
:1001A00002C0880F991F6A95E2F7282B2BBB56C017
:1001B0002BB381E090E002C0880F991F6A95E2F7A7
:1001C000809582238BBB4AC0413059F428B381E02B
:1001D00090E002C0880F991F6A95E2F7282B28BB90
:1001E0003DC028B381E090E002C0880F991F6A9556
:1001F000E2F78095822388BB31C0413059F425B3A2
:1002000081E090E002C0880F991F6A95E2F7282BE1
:1002100025BB24C025B381E090E002C0880F991F60
:100220006A95E2F78095822385BB18C0413059F466
:1002300022B381E090E002C0880F991F6A95E2F72F
:10024000282B22BB0BC022B381E090E002C0880FB4
:10025000991F6A95E2F78095822382BB80E008951A
:1002600081E00895843010F081E00895813049F0F4
:10027000813028F0823039F0833031F407C06BBB15
:1002800003C068BB01C065BB80E0089562BB80E02D
:100290000895843010F081E00895813049F0813074
:1002A00028F0823039F0833031F407C06ABB03C0D4
:1002B00067BB01C064BB80E0089561BB80E0089526
:1002C000FA018430E0F46830D0F4813049F08130B4
:1002D00028F0823039F0833081F406C089B305C03C
:1002E00086B303C083B301C080B390E002C095958C
:1002F00087956A95E2F78170808380E0089581E0B8
:100300000895813041F0813018F0823059F407C0EF
:100310008BB7806402C08BB780688BBF08958BB7A2
:1003200080628BBF0895813041F0813018F08230B7
:1003300059F407C08BB78F7B02C08BB78F778BBF09
:1003400008958BB78F7D8BBF08958130B9F08130D0
:1003500018F0823079F525C060FF03C085B7816051
:1003600002C085B78E7F85BF862F869580FF03C02C
:1003700085B7826014C085B78D7F11C060FF03C050
:1003800085B7846002C085B78B7F85BF862F869531
:1003900080FF03C085B7886002C085B7877F85BFAF
:1003A0000895613021F484B7806484BF089584B7D0
:1003B0008F7B84BF0895813019F48FB7806802C0A5
:1003C0008FB78F778FBF0895E82FF0E0EE0FFF1FF4
:1003D000E05AFF4F7183608308951F920F920FB60A
:1003E0000F9211242F933F934F935F936F937F93BB
:1003F0008F939F93AF93BF93EF93FF93E091600030
:10040000F0916100309709F00995FF91EF91BF914C
:10041000AF919F918F917F916F915F914F913F919C
:100420002F910F900FBE0F901F9018951F920F9253
:100430000FB60F9211242F933F934F935F936F93B7
:100440007F938F939F93AF93BF93EF93FF93E0912D
:100450006200F0916300309709F00995FF91EF91E8
:10046000BF91AF919F918F917F916F915F914F91CC
:100470003F912F910F900FBE0F901F9018951F92D4
:100480000F920FB60F9211242F933F934F935F93C8
:100490006F937F938F939F93AF93BF93EF93FF934C
:1004A000E0916400F0916500309709F00995FF91A3
:1004B000EF91BF91AF919F918F917F916F915F91DC
:1004C0004F913F912F910F900FBE0F901F90189555
:1004D0004091660081E048274093660080E060E03C
:1004E0000E94B800089580E060E041E00E943E0074
:1004F00083E062E040E00E943E0083E062E041E091
:100500000E94B80080E062E00E94A50180E068E6F9
:1005100072E00E94E40180E00E94810181E00E947B
:08052000DB01FFCFF894FFCFCF
:00000001FF
